:100000000C9408020C946C150C9441150C94161564
:100010000C94EB140C94C0140C9495140C946A1466
:100020000C943F140C9439020C9439020C9439024C
:100030000C9439020C9441160C9439020C94390238
:100040000C9439020C9439020C9439020C94390244
:100050000C9439020C9439020C9439020C949715C3
:100060000C9439020C940B160C94E1150C94390283
:100070000C9439020C9439020C9439020C94390214
:100080000C9439020C9439020C9439020C94390204
:100090000C9439020C9439020C9439020C946A16AF
:1000A0000C9439020C9439020C9439020C943902E4
:1000B0000C9439020C9439020C9439020C943902D4
:1000C0000C9439020C9439020C9439020C943902C4
:1000D0000C9439020C9439020C9439020C943902B4
:1000E0000C9439020C94CC210C94D3170C94351D2C
:1000F0000C94B11E0C9402210C949E1F0C9462046B
:100100000C94241D0C940E030C942A030C94FD02F1
:100110000C940F220C9438030C94041C0C9485044A
:100120000C9434030C945E1D0C948B210C94021DD2
:100130000C940E230C94CB040C9445060C942003D1
:100140000C94CF1F0C94521F0C94611F0C94E21D51
:100150000C94FE050C9426030C9457090C9433045C
:100160000C9408030C94301C0C94F9020C94D402E7
:100170000C9401030C94FF1B0C94211D0C94180685
:100180000C94031F0C9418030C942E030C94AC21B4
:100190000C9411060C94EF050C9448210C94330335
:1001A0000C9435040C94FF1C0C94B1210C94EF2298
:1001B0000C948F1D0C9493040C9413200C9418052C
:1001C0000C941D1D0C94A01D0C9471040C9405033B
:1001D0000C94EE050C941C030C9434040C94481DF0
:1001E0000C9412030C94921E0C94DC220C94F302D7
:1001F0000C94E21E00407A10F35A00A0724E1809C7
:100200000010A5D4E80000E87648170000E40B547D
:10021000020000CA9A3B000000E1F505000080964C
:100220009800000040420F000000A086010000007E
:10023000102700000000E803000000006400000038
:1002400000000A00000000000100000000002C7601
:10025000D888DC674F0823DFC1DFAE59E1B1B7961C
:10026000E5E3E453C63AE651997696E8E6C2842679
:10027000EB898C9B62ED407C6FFCEFBC9C9F40F255
:10028000BAA56FA5F490055A2AF75C936B6CF967D1
:100290006DC11BFCE0E40D47FEF520E6B500D0ED96
:1002A000902E0300943577050080841E08000020FE
:1002B0004E0A000000C80C333333330F986E12839C
:1002C0001141EF8D2114893BE65516CFFEE6DB1870
:1002D000D1844B381BF77C1D901DA4BBE424203235
:1002E00084725E228100C9F124ECA1E53D27000063
:1002F0000A0B02090C0D0E080703040100000000A0
:1003000000000000000000000000000000000000ED
:1003100000000000000000000000121110000000AA
:1003200000000000000000000000000000000000CD
:100330000000000000002100240027002A002D00FA
:100340003000330001010000040107010A01000030
:1003500020002300260029002C002F00320000017D
:100360000000030106010901000022002500280009
:100370002B002E00310034000201000005010801AD
:100380000B01050505050705080808080202020219
:100390000A0A080804040404010101010101010121
:1003A0000303030303030303040707070C0C0C0CEC
:1003B0000C0C0C0C020202020606060606060606D5
:1003C0000B0B0B0B0B0B0B0B010210202008081062
:1003D00020401020408002010201080402010102B5
:1003E000040810204080804020100804020180048E
:1003F00002018040201008040201080402010102E9
:100400000408102040800102040810204080D31707
:1004100011241FBECFEFD1E2DEBFCDBF00E00CBF85
:1004200029E0A0EBB6E001C01D92A335B207E1F7C9
:1004300016E0A0E0B2E0E4EBF5E500E00BBF02C09F
:1004400007900D92A03BB107D9F712E0C8E0D2E0C7
:1004500000E006C021970109802FFE010E94352788
:10046000C730D10780E00807A9F70E9458190C94FB
:10047000D82A0C940000CF93DF93DC01862F90E004
:10048000FC01E853FC4F549114965C931497242F6D
:1004900030E0F901E853FC4FE4911596EC93159781
:1004A0008E579C4FFC017491E72FF0E0EE0FFF1F79
:1004B000E859FC4FC591D4911796DC93CE931697CB
:1004C000F901EE57FC4FE491F0E0EE0FFF1FE25B05
:1004D000FC4F2591349119963C932E931897FC016B
:1004E0008491E82FF0E0EE0FFF1FEC5CFC4FC5910C
:1004F000D4911B96DC93CE931A9781E0641380E02D
:1005000052968C93529789E092E11D969C938E931C
:100510001C97E8815E2B58831696ED91FC911797F6
:10052000908114968C91809589238083DF91CF915F
:100530000895CF92DF92EF92FF92CF93DF93C09115
:100540002808D09129082097E9F02DEC3CEC4CE4E8
:100550005DE30E943E276B017C0120E030E0A901B1
:100560000E94EF2587FD15C020E030E040E85FE302
:10057000C701B6010E94B42818167CF0CAA2DBA2FB
:10058000ECA2FDA2DF91CF91FF90EF90DF90CF9092
:100590000895C12CD12C7601F1CFC12CD12C80E84B
:1005A000E82E8FE3F82EEACF08958150823108F0CB
:1005B0005AC0E82FF0E08827EF51FD4F8F4F0C9481
:1005C000352701030503F302F902FD023303080393
:1005D0000E03120318031C03200326032A0333030C
:1005E0002E0334033803809180008F77809380003E
:1005F0000895809180008F7DF9CF80918000877F62
:10060000F5CF84B58F7784BD089584B58F7DFBCFFA
:100610008091B0008F778093B00008958091B000F2
:100620008F7DF9CF809190008F778093900008950F
:10063000809190008F7DF9CF80919000877FF5CFDA
:100640008091A0008F778093A00008958091A000F2
:100650008F7DF9CF8091A000877FF5CF8091200119
:100660008F77809320010895809120018F7DF9CFAD
:1006700080912001877FF5CFCF93DF93282F30E043
:10068000F901E251FD4F8491F901E853FC4FD491F7
:10069000F901EE57FC4FC491CC23A1F081110E94C7
:1006A000D502EC2FF0E0EE0FFF1FE25BFC4FA591AF
:1006B000B491EC91ED2381E090E009F480E0DF91CA
:1006C000CF91089580E090E0FACF1F93CF93DF930E
:1006D000282F30E0F901E251FD4F8491F901E853F0
:1006E000FC4FD491F901EE57FC4FC491CC23A9F0F3
:1006F000162F81110E94D502EC2FF0E0EE0FFF1FA4
:10070000E859FC4FA591B4918FB7F894EC91111171
:1007100008C0D095DE23DC938FBFDF91CF911F916E
:100720000895DE2BF8CFCF93DF9390E0FC01E853E0
:10073000FC4F24918E579C4FFC0184918823C9F073
:1007400090E0880F991FFC01EC5CFC4FA591B491DF
:10075000FC01E859FC4FC591D49161110DC09FB7C0
:10076000F8948C91209582238C9388812823288368
:100770009FBFDF91CF910895623051F49FB7F894F5
:100780003C91822F809583238C93E8812E2BEFCF91
:100790008FB7F894EC912E2B2C938FBFEACF3FB7F5
:1007A000F8948091290790912A07A0912B07B09186
:1007B0002C0726B5A89B05C02F3F19F00196A11D57
:1007C000B11D3FBFBA2FA92F982F8827BC01CD019B
:1007D000620F711D811D911D42E0660F771F881FFA
:1007E000991F4A95D1F708958F929F92AF92BF9229
:1007F000CF92DF92EF92FF926B017C010E94CF03B8
:100800004B015C01C114D104E104F104B9F00E9470
:10081000CF03681979098A099B09683E73408105ED
:10082000910580F321E0C21AD108E108F10888EEB1
:10083000880E83E0981EA11CB11CE4CFFF90EF90BE
:10084000DF90CF90BF90AF909F908F9008952FB77B
:10085000F894609125077091260780912707909161
:1008600028072FBF089508950895AF92BF92CF92A1
:10087000DF92EF92FF920F931F93CF93DF936C0160
:100880007B018B01040F151FEB015E01AE18BF0841
:10089000C017D10759F06991D601ED91FC910190F3
:1008A000F081E02DC6011995892B79F7C501DF91FB
:1008B000CF911F910F91FF90EF90DF90CF90BF905D
:1008C000AF900895FC01538D448D252F30E0842F87
:1008D00090E0821B930B541710F0CF960895019768
:1008E0000895FC01918D828D981761F0A28DAE0F55
:1008F000BF2FB11D5D968C91928D9F5F9F73928FDC
:1009000090E008958FEF9FEF0895FC01918D828D07
:10091000981731F0828DE80FF11D858D90E00895D4
:100920008FEF9FEF0895FC01918D228D892F90E02C
:10093000805C9F4F821B91098F73992708958DE7E3
:1009400097E00E94930421E0892B09F420E0822F94
:100950000895FC01A48DA80FB92FB11DA35ABF4F54
:100960002C91848D90E001968F739927848FA689AE
:10097000B7892C93A089B1898C91837080648C9302
:10098000938D848D981306C00288F389E02D8081B1
:100990008F7D80830895EF92FF920F931F93CF93E3
:1009A000DF93EC0181E0888F9B8D8C8D98131AC0AA
:1009B000E889F989808185FF15C09FB7F894EE8991
:1009C000FF896083E889F9898081837080648083EE
:1009D0009FBF81E090E0DF91CF911F910F91FF9039
:1009E000EF900895F62E0B8D10E00F5F1F4F0F73E1
:1009F0001127E02E8C8D8E110CC00FB607FCFACF9C
:100A0000E889F989808185FFF5CFCE010E94A9048C
:100A1000F1CFEB8DEC0FFD2FF11DE35AFF4FF0826C
:100A20009FB7F8940B8FEA89FB8980818062CFCFD2
:100A3000CF93DF93EC01888D8823B9F0AA89BB8915
:100A4000E889F9898C9185FD03C0808186FD0DC000
:100A50000FB607FCF7CF8C9185FFF2CF808185FF21
:100A6000EDCFCE010E94A904E9CFDF91CF91089587
:100A700080E090E0892B29F00E949F0481110E9460
:100A8000000080E090E0892B49F080E090E0892B25
:100A900029F00E94000081110E94000080E090E097
:100AA000892B49F080E090E0892B29F00E9400001A
:100AB00081110E94000080E090E0892B49F080E0E5
:100AC00090E0892B29F00E94000081110C94000015
:100AD0000895FC0180810E943C0321E0892B09F0EC
:100AE00020E0822F0895CF93DF93EC0161E08A85A7
:100AF0000E94930361E08A810E94930361E08E81EA
:100B00000E94930361E08885DF91CF910C94930359
:100B10002091F506260F3327331F21323105ECF4DF
:100B200020915307FC0190E080E0243069F082E0DE
:100B30000895A091F5062191AC014B52594FA40F95
:100B4000B52FB11D2C930196861798F38091F50669
:100B5000680F6093F50680E0089581E00895109293
:100B6000530781E08093520710922D0761E084E1E2
:100B70000E94650361E085E10E946503E9EBF0E016
:100B800080818E7F808380818D7F808388E48093C5
:100B9000B80085E48093BC000895CF93DF9391E083
:100BA0009093D4068823B9F0C091B800D091BA00D0
:100BB0008091BC008A7B8093BC0060E084E10E944D
:100BC000650360E085E10E9465030E94AF05D09354
:100BD000BA00C093B800DF91CF9108950895E091D5
:100BE0001D0780911C07E81730F4F0E0EC54F94F32
:100BF000808190E008958FEF9FEF089590911D07F9
:100C000080911C072FEF3FEF981748F4E92FF0E091
:100C1000EC54F94F208130E09F5F90931D07C9018C
:100C2000089580911C0790911D07891B990B0895C9
:100C3000CF92DF92EF92FF920F931F93CF93DF93A8
:100C40007C01CB018A0120915907222389F0EB0115
:100C50006B01C40ED51ECC15DD0569F06991D70175
:100C6000ED91FC910190F081E02DC7011995F3CF32
:100C7000642F0E948805C801DF91CF911F910F91C9
:100C8000FF90EF90DF90CF900895CF93DF931F9266
:100C9000CDB7DEB76983209159072223F9F020915F
:100CA0007C07203258F021E030E0FC0133832283BE
:100CB00090E080E00F90DF91CF91089580915A07E6
:100CC000E82FF0E0E55AF84F998190838F5F809389
:100CD0005A0780937C0781E090E0ECCF61E0CE0181
:100CE00001960E948805F7CF682F8AE198E00C945E
:100CF0004506CF92DF92EF92FF920F931F93CF930F
:100D0000DF93D62F6A012FEF249F7001259FF00CEF
:100D10001124FC01C08181E080935907C0937B07B7
:100D200010925A0710927C0760E08AE198E00E94D6
:100D300045066D2F8AE198E00E9445066C2D8AE1F8
:100D400098E00E944506C70199270E9474068F2DDE
:100D500090E00E94740688EE90E00E94740683E0A2
:100D600090E00E947406D0917C07D13208F092C0C6
:100D70000E94CF036B017C0180915307811165C0F4
:100D800082E08093530781E0809352078FEF809336
:100D9000510710925007D0934F07ABE5B7E0EFE251
:100DA000F7E080E0D81385C010922E0780912E07BF
:100DB000CC0FC82BC0932E0780912D07813009F0EE
:100DC0007CC010922D070E94CF036B017C018091A3
:100DD0002E078093BB008091550790915607A091F4
:100DE0005707B0915807892B8A2B8B2B99F00E94BB
:100DF000CF03009155071091560720915707309166
:100E000058076C197D098E099F09061717072807CF
:100E10003907E0F18091BC0083FDD9CF85EC809348
:100E2000BC000E94CF036B017C018091530782308C
:100E300009F445C0809151078F3F61F180915107BE
:100E4000803241F18091510725C0809155079091E2
:100E50005607A0915707B0915807892B8A2B8B2BE7
:100E600009F48ACF0E94CF030091550710915607CD
:100E700020915707309158076C197D098E099F09F9
:100E8000061717072807390708F076CF809154070F
:100E90000E94CD0510925A0710927C0710925907B4
:100EA000DF91CF911F910F91FF90EF90DF90CF9046
:100EB00008959D9191938F5F75CF85EEB0CF80910E
:100EC000550790915607A0915707B0915807892B65
:100ED0008A2B8B2B09F4A9CF0E94CF0300915507D1
:100EE0001091560720915707309158076C197D09CA
:100EF0008E099F09061717072807390708F095CFAD
:100F0000C5CFFF920F931F93CF93DF938C01EB011B
:100F1000FC018181882319F0D195C195D10950E058
:100F200040E060E02097F9F0FF24F3941C161D06C2
:100F30002CF0D195C195D10992E0F92EAE01440F64
:100F4000551F4F3F510519F014F04FEF50E06F2D32
:100F5000C8010E9479066EE170E080E090E00E9496
:100F6000F403AE016F2DC801DF91CF911F910F9156
:100F7000FF900C9479064F925F926F927F928F92BE
:100F80009F92AF92BF92CF92DF92EF92FF920F9318
:100F90001F93CF93DF93CDB7DEB762970FB6F89468
:100FA000DEBF0FBECDBF9A8B898B49835A836B837B
:100FB0007C835901A901980169817A818B819C8187
:100FC0000E943D272B013C01A70196010E943D276D
:100FD0006D837E838F839887A501980169817A81CB
:100FE0008B819C810E943E274B015C01A7019601E9
:100FF0000E943E2769837A838B839C83A701960195
:10100000C501B4010E943D2769877A878B879C8739
:10101000A7019601C301B2010E943E272B013C01AA
:1010200020E030E0A9016D817E818F8198850E944A
:10103000B4288D809E80AF80B884181624F0B7FA4B
:10104000B094B7F8B09420E030E0A90169817A81CA
:101050008B819C810E94B428C980DA80EB80FC805F
:10106000181624F0F7FAF094F7F8F094A701960117
:10107000C501B4010E94B428181614F046015701A6
:1010800020E030E0A90169857A858B859C850E94E6
:10109000B428C984DA84EB84FC84181624F0F7FAA7
:1010A000F094F7F8F09420E030E0A901C301B20118
:1010B0000E94B42818160CF4D9C0D301C201B0584C
:1010C0008D879E87AF87B88B2D853E854F85588944
:1010D000C701B6010E94B428181624F0CD84DE841E
:1010E000EF84F888A7019601C501B4010E94B428D5
:1010F000181614F04601570120E030E040E85FE3A5
:10110000C501B4010E94B428181664F5A501940124
:101110006D817E818F8198850E94AA276D837E8351
:101120008F839887A501940169817A818B819C8145
:101130000E94AA2769837A838B839C83A5019401EB
:1011400069857A858B859C850E94AA2769877A871D
:101150008B879C87A5019401C301B2010E94AA2735
:101160002B013C0120E030E04FE753E46D817E81AC
:101170008F8198850E945526A989BA8992962D91CA
:101180003D914D915C9195970E9455260E941C2897
:10119000E989FA89808191810E94810720E030E00D
:1011A0004FE753E469817A818B819C810E945526A7
:1011B000A989BA8992962D913D914D915C9195970F
:1011C0000E9455260E941C28E989FA898281938110
:1011D0000E94810720E030E04FE753E469857A857B
:1011E0008B859C850E945526A989BA8992962D9156
:1011F0003D914D915C9195970E9455260E941C2827
:10120000E989FA89848195810E94810720E030E094
:101210004FE753E4C301B2010E945526A989BA8958
:1012200092962D913D914D915C9195970E945526F6
:101230000E941C28E989FA898681978162960FB6F7
:10124000F894DEBF0FBECDBFDF91CF911F910F91FC
:10125000FF90EF90DF90CF90BF90AF909F908F90D6
:101260007F906F905F904F900C9481074D865E86C3
:101270006F86788A29CFCF92DF92EF92FF920F93F9
:101280001F93E0912808F0912908309749F06701F1
:10129000780189019A01AB01BC01CF010E94BB0713
:1012A0001F910F91FF90EF90DF90CF90089590E005
:1012B00080E0089542E050E068E472E08DE797E056
:1012C0000C943504CF93DF93FC0101900020E9F7E3
:1012D0003197AF01481B590BBC018DE797E00E9485
:1012E0003504EC010E945A098C0F9D1FDF91CF91AC
:1012F0000895CF93DF93EC0161E08C819D81892B70
:1013000009F060E08A810E94650361E08A850E949D
:10131000650360E679E080E090E00E94F40360E01D
:101320008A850E9465038BE492E0DF91CF910C9453
:10133000620980912A0890912B08009711F00C9473
:1013400079090895CF93DF93EC0161E08E810E94CB
:10135000650368EE73E080E090E00E94F40360E0D3
:101360008E810E9465038DE592E0DF91CF910C9410
:101370006209CF93DF93C0912A08D0912B08209760
:10138000A1F061E088850E94650368EE73E080E06B
:1013900090E00E94F40360E088850E9465038FE678
:1013A00092E0DF91CF910C946209DF91CF91089583
:1013B000CF93DF93C0912C08D0912D082097C1F0D6
:1013C0006C818A810E94650361E088810E946503C7
:1013D0006AE77DE080E090E00E94F40360E08881AD
:1013E0000E94650383E892E0DF91CF910C9462093B
:1013F000DF91CF910895CF93DF93C0912A08D091C8
:101400002B082097E9F061E08C819D81892B09F4FC
:1014100060E08A810E94650361E08A850E9465031D
:1014200060ED77E080E090E00E94F40360E08A8560
:101430000E94650383E892E0DF91CF910C946209EA
:10144000DF91CF9108950F931F93CF93DF93EC011A
:101450008B016C8181E068278A810E94650361E0CD
:1014600088810E946503B801110F880B990B0E94B7
:10147000F40360E088810E9465038BE492E0DF91D1
:10148000CF911F910F910C946209CF93DF93FC01D0
:1014900044815581608171818DE797E00E94350418
:1014A000EC010E945A098C0F9D1FDF91CF91089586
:1014B0000F931F93482FEAEDF3E06491E4E9F3E022
:1014C000E4918111462FF0E0EE0FFF1FE25BFC4F2D
:1014D0008591949100E412E42FE030E00E948E1791
:1014E000611571058105910529F06F5F7F4F8F4F61
:1014F0009F4F9F701F910F9108958F929F92AF926F
:10150000BF92CF92DF92EF92FF9281E00E94580A41
:101510004B015C0180E00E94580A75016401C60E0F
:10152000D71EE81EF91E60E070E0CB01C114D104A3
:10153000E104F104B1F0C501B4010E94F4254B01AE
:101540005C01C701B6010E94F4259B01AC01C501F5
:10155000B4010E94AA2720E030E044EB53E40E944B
:101560005526FF90EF90DF90CF90BF90AF909F9067
:101570008F9008958F929F92AF92BF92CF92DF92F9
:10158000EF92FF920F931F93CF93DF93C0912808A0
:10159000D0912908209771F480E0DF91CF911F91BD
:1015A0000F91FF90EF90DF90CF90BF90AF909F9002
:1015B0008F9008956B017C0184E992E00E9462099A
:1015C000CAA6DBA6ECA6FDA60E9427044B015C017F
:1015D0000E942704681979098A099B0960337547B5
:1015E00081059105C8F60E947D0A2AA53BA54CA558
:1015F0005DA50E943D2720E030E047E054E40E94D2
:101600003E2720E030E044EB53E40E945D2820E0D8
:1016100030E044E353E40E943D2720E030E040E224
:1016200051E40E94AA276B017C0120E030E0A9016F
:101630000E94B42818167CF42AE037ED43E25CE3FC
:10164000C701B6010E94EF2587FF0FC01EA61FA687
:1016500018AA19AA0EC02AE037ED43E25CEBC701D5
:10166000B6010E94B42818168CF3CEA6DFA6E8AA0D
:10167000F9AACEA4DFA4E8A8F9A82DEC3CEC4CE430
:101680005EEBC701B6010E94EF2587FD53C02DEC2C
:101690003CEC4CE45EE3C701B6010E94B428181686
:1016A0000CF451C0CEA6DFA6E8AAF9AA00E010E02B
:1016B00020E83FEB40E050E0BA01CE010E94BB07BA
:1016C00064E170E080E090E00E94F4038A859B85ED
:1016D0000E94690581110DC08E859F850E94690554
:1016E000811107C08A899B890E946905882309F4B2
:1016F0006FCFC12CD12C760100E010E020E83FE351
:10170000B701A601CE010E94BB0768EC70E080E043
:1017100090E00E94F40397018601B701A601CE0173
:101720000E94BB0768EC70E080E090E00E94F40348
:1017300081E033CF9DECC92E9CECD92E9CE4E92EA0
:101740009EEBF92EAFCF8DECC82E8CECD82E8CE40E
:10175000E82E8EE3F82EA6CF0F931F93CF93DF933F
:10176000EC01EA85FB8580819C81892B8083EE8159
:10177000FF8180819C81892B80838BE290E001979F
:10178000F1F7EE81FF8190818C81809589238083A0
:101790008A89882339F0EA85FB8590818C81809540
:1017A00089238083E885F98580819D81892339F0AB
:1017B00090E080E0DF91CF911F910F9108950E94FA
:1017C000CF03AB01BC018C859D85B0E0A0E08855BE
:1017D000994EAF4FBF4F840F951FA61FB71F8E871F
:1017E0009F87A88BB98BE885F98580819D818923A6
:1017F00061F40E94CF030E851F8528893989061759
:1018000017072807390778F7D3CF0E94CF032C8515
:101810003D85620F731F811D911D6E877F87888BA9
:10182000998BE885F98580819D81892361F00E94EB
:10183000CF030E851F8528893989061717072807C2
:10184000390778F7B5CF0E94CF032C853D85A901D4
:10185000455051092E853F85FA01E21BF30BCF015C
:10186000860F971FA7CF0F931F93CF93DF93FB0193
:1018700024813581232B39F1EC01008111816AEC3F
:1018800072E0C8010E94C82A6CE97FEF892B49F0F9
:101890006DEC72E0C8010E94C82A892BA1F464E6AD
:1018A00070E0CE010E94810760E570E080E090E08A
:1018B0000E94F40370E060E0CE01DF91CF911F91B0
:1018C0000F910C948107DF91CF911F910F91089593
:1018D0000F931F93CF93DF93EC0188819981009739
:1018E00059F02A813B812617370730F081E0DF91DC
:1018F000CF911F910F9108958B016F5F7F4F0E94D1
:10190000DE29009759F0998388831B830A832C81F1
:101910003D81232B59F7FC011082E8CF80E0E7CF0F
:10192000CF93DF93EC0188819981009711F00E9499
:101930005529198218821D821C821B821A82DF910E
:10194000CF9108950F931F93CF93DF93EC010C81F8
:101950001D810D5F1F4FB8010E94680C882391F014
:10196000288139818C819D8160ED72E0820F931F07
:101970000E94D12A1D830C83CE01DF91CF911F914C
:101980000F910895CE010E94900CF6CFEF92FF9236
:101990000F931F93CF93DF93EC01FB01E080F18065
:1019A000E114F10411F10481158101151105A9F06B
:1019B0008C819D81080F191FB801CE010E94680C0F
:1019C000882399F0288139818C819D81B701820F0C
:1019D000931F0E94D12A1D830C83CE01DF91CF91EA
:1019E0001F910F91FF90EF900895CE010E94900CEF
:1019F000F4CFEF92FF920F931F93CF93DF93EC01FD
:101A00007B018A01BA010E94680C81110BC0CE01D2
:101A10000E94900CCE01DF91CF911F910F91FF900A
:101A2000EF9008951D830C83B701888199810E94EE
:101A3000D12AF0CFFB0101900020E9F73197AF01E7
:101A4000461B570B0C94F90CEF92FF920F931F93C8
:101A5000CF93DF93CDB7DEB7A1970FB6F894DEBF73
:101A60000FBECDBF7C01CB01BA01F70111821082FC
:101A700013821282158214828E010F5F1F4F22E0A3
:101A800044E00E941A23009789F0BC01C7010E941C
:101A90001A0DA1960FB6F894DEBF0FBECDBFDF9131
:101AA000CF911F910F91FF90EF900895C7010E9471
:101AB000900CEFCF0F931F93CF93DF93CDB7DEB78B
:101AC000A2970FB6F894DEBF0FBECDBF8C01CB013D
:101AD000BA01F801118210821382128215821482D7
:101AE0002AE0AE014F5F5F4F0E944323BE016F5F4C
:101AF0007F4FC8010E941A0DA2960FB6F894DEBF60
:101B00000FBECDBFDF91CF911F910F910895CF935D
:101B1000DF93EC01FB018617970749F06081718123
:101B20006115710541F0448155810E94F90CCE0187
:101B3000DF91CF9108950E94900CF9CFFC011182A2
:101B400010821382128215821482FB010190002000
:101B5000E9F73197AF01461B570B0C94F90CFC01C8
:101B600080819181009711F00C9455290895CF92AE
:101B7000DF92EF92FF920F931F93CF93DF9300D0EA
:101B800000D0CDB7DEB78C017C0188E0E80EF11CF7
:101B9000F801C190D1908F016AEC72E0CE010196FC
:101BA0000E949E0DBE016F5F7F4FC6010E94330CE5
:101BB000CE0101960E94AF0D0E151F0549F726961E
:101BC0000FB6F894DEBF0FBECDBFDF91CF911F914E
:101BD0000F91FF90EF90DF90CF9008954F925F921A
:101BE0006F927F928F929F92AF92BF92CF92DF922D
:101BF000EF92FF920F931F93CF93DF9300D000D00B
:101C000000D01F92CDB7DEB7209128083091290867
:101C10003A872987232B09F4BCC04B015C0184ED72
:101C200092E00E9462090E947D0A69837A838B8315
:101C30009C839B01AC01C501B4010E943E2720E0BA
:101C400030E040E752E40E943D274B015C0120E078
:101C500030E044EB53E40E94B42887FD0AC020E042
:101C600030E044EB53E4C501B4010E943D274B0131
:101C70005C0120E030E0A901C501B4010E94EF251C
:101C800087FF0AC020E030E044EB53E4C501B40113
:101C90000E943E274B015C010E9427046D837E83D6
:101CA0008F8398870E9427042D813E814F8158851C
:101CB000621B730B840B950B603177428105910594
:101CC00008F063C00E947D0A2B013C01A50194012C
:101CD00069817A818B819C810E94B4281816ACF5A9
:101CE0009DECC92E9CECD92E9CE4E92E9FE3F92EA5
:101CF00000E010E09801B901A80189859A850E9449
:101D0000BB07A5019401C301B2010E94EF2518167B
:101D1000ACF189859A850E94B70D81E02A960FB6AD
:101D2000F894DEBF0FBECDBFDF91CF911F910F9111
:101D3000FF90EF90DF90CF90BF90AF909F908F90EB
:101D40007F906F905F904F9008958DECC82E8CEC33
:101D5000D82E8CE4E82E8FEBF82E00E010E09801EE
:101D6000B901A80189859A850E94BB07A501940144
:101D7000C301B2010E94B42887FFCBCF6AE070E0B4
:101D800080E090E00E94F4038DCF89859A850E94BF
:101D9000B70D80E0C3CF0F931F93CF93DF9300D095
:101DA00000D0CDB7DEB78C011A8219821C821B824B
:101DB0001E821D82CE0101960E94870DBE016F5FBB
:101DC0007F4FC8010E94330CCE0101960E94AF0DD7
:101DD00026960FB6F894DEBF0FBECDBFDF91CF9130
:101DE0001F910F910895AF92BF92CF92DF92EF9221
:101DF000FF920F931F93CF93DF9300D000D0CDB706
:101E0000DEB75B018C017C0188E0E80EF11CF80173
:101E1000C190D1908F011A8219821C821B821E826E
:101E20001D82B501CE0101960E94870DBE016F5F34
:101E30007F4FC6010E94CB0ECE0101960E94AF0DCE
:101E40000E151F0521F726960FB6F894DEBF0FBEBC
:101E5000CDBFDF91CF911F910F91FF90EF90DF9059
:101E6000CF90BF90AF9008950F931F93CF93DF93C0
:101E700000D000D0CDB7DEB7009128081091290816
:101E80000115110549F0BC01FC0184819581892B64
:101E900071F4C8010E94B70D26960FB6F894DEBF04
:101EA0000FBECDBFDF91CF911F910F9108951A8280
:101EB00019821C821B821E821D82CE0101960E9405
:101EC000870DBE016F5F7F4FC8010E94F30ECE01E8
:101ED00001960E94AF0DE0CF4F925F926F927F927A
:101EE000AF92BF92CF92DF92EF92FF920F931F9328
:101EF000CF93DF9300D000D000D01F92CDB7DEB7D4
:101F0000A0902808B0902908A114B10409F4D4C005
:101F10002B013C010E947D0AF50162A773A784A7EB
:101F200095A70E9427046F83788789879A870E94E4
:101F300027042F81388549855A85621B730B840BD2
:101F4000950B0E94F4259B01AC01C301B2010E94D4
:101F5000B42818160CF08AC00E947D0AF50122A54B
:101F600033A544A555A50E943D2720E030E047E079
:101F700054E40E943E2720E030E044EB53E40E940A
:101F80005D2820E030E044E353E40E943D2720E058
:101F900030E040E251E40E94AA276B017C0120E07E
:101FA00030E0A9010E94B428181684F42AE037ED25
:101FB00043E25CE3C701B6010E94EF2587FF10C032
:101FC000F50116A617A610AA11AA0FC02AE037ED30
:101FD00043E25CEBC701B6010E94B428181684F3F3
:101FE000F501C6A6D7A6E0AAF1AAF501C6A4D7A412
:101FF000E0A8F1A82DEC3CEC4CE45EEBC701B60187
:102000000E94EF2587FD20C02DEC3CEC4CE45EE304
:10201000C701B6010E94B4281816FCF0F501C6A647
:10202000D7A6E0AAF1AA00E010E0980140E050E055
:1020300060E87FE3C5010E94BB0764E170E080E0D7
:1020400090E00E94F40373CF9DECC92E9CECD92E36
:102050009CE4E92E9EEBF92EE1CF8DECC82E8CECA2
:10206000D82E8CE4E82E8EE3F82ED8CF6AEC72E0FE
:10207000CE0101960E949E0DBE016F5F7F4FC5018C
:102080000E94F30ECE0101960E94AF0D81E02A96C8
:102090000FB6F894DEBF0FBECDBFDF91CF911F9179
:1020A0000F91FF90EF90DF90CF90BF90AF907F9017
:1020B0006F905F904F90089580E0E9CF4F925F92CC
:1020C0006F927F92AF92BF92CF92DF92EF92FF9288
:1020D0000F931F93CF93DF9300D000D0CDB7DEB71F
:1020E000A0902808B090290880E0A114B10409F458
:1020F000BAC084E992E00E9462090E947D0AF5015B
:1021000062A773A784A795A70E9427042B013C010F
:102110000E94270464197509860997090E94F4250D
:1021200020E030E046E154E40E94EF2587FF8AC0BA
:102130000E947D0AF50122A533A544A555A50E945C
:102140003D2720E030E047E054E40E943E2720E0B5
:1021500030E044EB53E40E945D2820E030E044E3AB
:1021600053E40E943D2720E030E040E251E40E9429
:10217000AA276B017C0120E030E0A9010E94B4286D
:10218000181684F42AE037ED43E25CE3C701B60198
:102190000E94EF2587FF10C0F50116A617A610AA0A
:1021A00011AA0FC02AE037ED43E25CEBC701B6018C
:1021B0000E94B428181684F3F501C6A6D7A6E0AA93
:1021C000F1AAF501C6A4D7A4E0A8F1A82DEC3CEC37
:1021D0004CE45EEBC701B6010E94EF2587FD20C0ED
:1021E0002DEC3CEC4CE45EE3C701B6010E94B42840
:1021F0001816FCF0F501C6A6D7A6E0AAF1AA00E0E1
:1022000010E0980140E050E060E87FEBC5010E94DB
:10221000BB0764E170E080E090E00E94F40378CFB7
:102220009DECC92E9CECD92E9CE4E92E9EEBF92E58
:10223000E1CF8DECC82E8CECD82E8CE4E82E8EE30A
:10224000F82ED8CF6DEC72E0CE0101960E949E0D63
:10225000BE016F5F7F4FC5010E94F30ECE01019654
:102260000E94AF0D81E026960FB6F894DEBF0FBE38
:10227000CDBFDF91CF911F910F91FF90EF90DF9035
:10228000CF90BF90AF907F906F905F904F900895E8
:102290004F925F926F927F929F92AF92BF92CF9236
:1022A000DF92EF92FF920F931F93CF93DF9300D0B3
:1022B00000D0CDB7DEB7A0902808B0902908A114AF
:1022C000B10409F4D5C08DEF92E00E94620983EC5D
:1022D00095EFA8EABEE3F50182A393A3A4A3B5A357
:1022E0000E9427042B013C010E94270464197509F0
:1022F00086099709603375478105910508F0A8C0E4
:10230000F501828593850E946905F82EF501868581
:1023100097850E946905982EF501828993890E940C
:102320006905082FF501808591850E946905182FA0
:10233000882359F16AEC72E0CE0101960E949E0D4D
:10234000BE016F5F7F4FC5010E94F30ECE01019663
:102350000E94AF0D88E293E00E946209812F2696C9
:102360000FB6F894DEBF0FBECDBFDF91CF911F91A6
:102370000F91FF90EF90DF90CF90BF90AF909F9024
:102380007F906F905F904F900895FF2049F19920C2
:1023900071F06AE979E989E19EE320E030E0A90182
:1023A0000023E9F10AE919E929E93EE321C0011115
:1023B0002EC000E010E09801C12CD12C90E8E92E4D
:1023C0009EE3F92E40E050E060E87FE3C5010E9403
:1023D000BB0764E170E080E090E00E94F40384CFEA
:1023E00091100AC0011129C00DEC1CEC2CE43DE356
:1023F000C12CD12C7601E6CF60E070E0CB01011159
:102400000AC000E010E0980168017901DBCF6AE9B9
:1024100079E989E19EE32DEC3CEC4CE45DE30E941C
:102420003D276B017C0100E010E09801992051F2FA
:102430000DEC1CEC2CE43DE3C5CF00E010E098016E
:102440008DECC82E8CECD82EED2C8DEBF82EBACF5F
:102450006AEC72E0CE0101960E949E0DBE016F5F94
:102460007F4FC5010E94F30ECE0101960E94AF0D71
:1024700010E074CF4F925F926F927F92AF92BF92B3
:10248000CF92DF92EF92FF920F931F93CF93DF9340
:1024900000D000D0CDB7DEB7A0902808B0902908B2
:1024A00080E0A114B10409F4A0C083EC95EFA8EA80
:1024B000BEE3F50182A393A3A4A3B5A30E942704BE
:1024C0002B013C010E9427046419750986099709AC
:1024D000643C79408105910508F076C0F50182855C
:1024E00093850E946905082FF501868597850E94CE
:1024F0006905182FF501828993890E9469050023D7
:1025000071F1112399F081114CC06AE979E989E1EF
:102510009EE320E030E0A9010E943D276B017C0191
:1025200011114DC000E010E098010BC0811134C0C2
:1025300000E010E09801C12CD12C90E8E92E9EE338
:10254000F92E40E050E060E87FE3C5010E94BB0740
:1025500064E170E080E090E00E94F403B3CF1111D9
:1025600011C00DEC1CEC2CE43DE38823F1F000E0FD
:1025700010E098018DECC82E8CECD82EED2C8DEB54
:10258000F82EDFCF8823A9F060E070E0CB012DECBE
:102590003CEC4CE45DE3C0CF6AE979E989E19EE374
:1025A000F6CF0AE919E929E93EE3C12CD12C7601DD
:1025B000C8CF00E010E0980168017901C2CF0DECAE
:1025C0001CEC2CE43DE3BDCF6AEC72E0CE01019639
:1025D0000E949E0DBE016F5F7F4FC5010E94F30EEA
:1025E000CE0101960E94AF0D81E026960FB6F894B9
:1025F000DEBF0FBECDBFDF91CF911F910F91FF9036
:10260000EF90DF90CF90BF90AF907F906F905F90F2
:102610004F9008954F925F926F927F92AF92BF92C8
:10262000CF92DF92EF92FF920F931F93CF93DF939E
:1026300000D000D000D01F92CDB7DEB7A090280800
:10264000B0902908A114B10409F4DFC06A017B012C
:10265000BC01072E000C880B990B0E94F6252B015C
:102660003C0184E992E00E946209F501C2A6D3A66A
:10267000E4A6F5A60E9427046F83788789879A8746
:102680000E9427042F81388549855A85621B730B68
:10269000840B950B0E94F4259B01AC01C301B20190
:1026A0000E94B42818160CF08AC00E947D0AF50119
:1026B00022A533A544A555A50E943D2720E030E082
:1026C00047E054E40E943E2720E030E044EB53E42E
:1026D0000E945D2820E030E044E353E40E943D275F
:1026E00020E030E040E251E40E94AA276B017C0127
:1026F00020E030E0A9010E94B428181684F42AE0F2
:1027000037ED43E25CE3C701B6010E94EF2587FF86
:1027100010C0F50116A617A610AA11AA0FC02AE02C
:1027200037ED43E25CEBC701B6010E94B4281816EE
:1027300084F3F501C6A6D7A6E0AAF1AAF501C6A4BE
:10274000D7A4E0A8F1A82DEC3CEC4CE45EEBC7016B
:10275000B6010E94EF2587FD20C02DEC3CEC4CE437
:102760005EE3C701B6010E94B4281816FCF0F5011B
:10277000C6A6D7A6E0AAF1AA00E010E0980140E0C2
:1027800050E060E87FEBC5010E94BB0764E170E0A8
:1027900080E090E00E94F40373CF9DECC92E9CEC86
:1027A000D92E9CE4E92E9EEBF92EE1CF8DECC82EBC
:1027B0008CECD82E8CE4E82E8EE3F82ED8CF6DEC7E
:1027C00072E0CE0101960E949E0DBE016F5F7F4FA9
:1027D000C5010E94F30ECE0101960E94AF0D81E06B
:1027E0002A960FB6F894DEBF0FBECDBFDF91CF9112
:1027F0001F910F91FF90EF90DF90CF90BF90AF901F
:102800007F906F905F904F90089580E0E9CF85EDC5
:102810008093BC008091550790915607A09157076F
:10282000B09158070796A11DB11D23E0B695A79555
:10283000979587952A95D1F72091BC0024FD03C078
:102840001092530708954091550750915607609193
:10285000570770915807452B462B472B69F3009774
:10286000A105B10541F02AE22A95F1F700C00197D0
:10287000A109B109E1CF809154070C94CD051F92B5
:102880000F920FB60F9211240BB60F922F933F9316
:102890004F935F936F937F938F939F93AF93BF9368
:1028A000EF93FF93E0911002F09111021995FF91BF
:1028B000EF91BF91AF919F918F917F916F915F91B8
:1028C0004F913F912F910F900BBE0F900FBE0F9025
:1028D0001F9018951F920F920FB60F9211240BB6EE
:1028E0000F922F933F934F935F936F937F938F93A9
:1028F0009F93AF93BF93EF93FF93E0910E02F091FC
:102900000F021995FF91EF91BF91AF919F918F9118
:102910007F916F915F914F913F912F910F900BBEDF
:102920000F900FBE0F901F9018951F920F920FB629
:102930000F9211240BB60F922F933F934F935F93F7
:102940006F937F938F939F93AF93BF93EF93FF9377
:10295000E0910402F09105021995FF91EF91BF916A
:10296000AF919F918F917F916F915F914F913F9127
:102970002F910F900BBE0F900FBE0F901F901895C8
:102980001F920F920FB60F9211240BB60F922F9336
:102990003F934F935F936F937F938F939F93AF93E7
:1029A000BF93EF93FF93E0910202F0910302199518
:1029B000FF91EF91BF91AF919F918F917F916F9117
:1029C0005F914F913F912F910F900BBE0F900FBED3
:1029D0000F901F9018951F920F920FB60F9211240F
:1029E0000BB60F922F933F934F935F936F937F9309
:1029F0008F939F93AF93BF93EF93FF93E0910C025C
:102A0000F0910D021995FF91EF91BF91AF919F91B8
:102A10008F917F916F915F914F913F912F910F9087
:102A20000BBE0F900FBE0F901F9018951F920F9224
:102A30000FB60F9211240BB60F922F933F934F9323
:102A40005F936F937F938F939F93AF93BF93EF9316
:102A5000FF93E0910A02F0910B021995FF91EF911B
:102A6000BF91AF919F918F917F916F915F914F91A6
:102A70003F912F910F900BBE0F900FBE0F901F90A4
:102A800018951F920F920FB60F9211240BB60F924A
:102A90002F933F934F935F936F937F938F939F9366
:102AA000AF93BF93EF93FF93E0910802F091090277
:102AB0001995FF91EF91BF91AF919F918F917F9168
:102AC0006F915F914F913F912F910F900BBE0F909F
:102AD0000FBE0F901F9018951F920F920FB60F9276
:102AE00011240BB60F922F933F934F935F936F93E5
:102AF0007F938F939F93AF93BF93EF93FF93E09157
:102B00000602F09107021995FF91EF91BF91AF91E5
:102B10009F918F917F916F915F914F913F912F91F5
:102B20000F900BBE0F900FBE0F901F9018951F9225
:102B30000F920FB60F9211242F933F938F939F9371
:102B4000AF93BF938091250790912607A091270707
:102B5000B09128073091240723E0230F2D3758F533
:102B60000196A11DB11D2093240780932507909302
:102B70002607A0932707B0932807809129079091F3
:102B80002A07A0912B07B0912C070196A11DB11D1A
:102B90008093290790932A07A0932B07B0932C07C3
:102BA000BF91AF919F918F913F912F910F900FBE49
:102BB0000F901F90189526E8230F0296A11DB11DB6
:102BC000D2CF1F920F920FB60F9211240BB60F9215
:102BD0002F933F934F935F936F937F938F939F9325
:102BE000AF93BF93EF93FF938DE797E00E94A90403
:102BF000FF91EF91BF91AF919F918F917F916F91D5
:102C00005F914F913F912F910F900BBE0F900FBE90
:102C10000F901F9018951F920F920FB60F921124CC
:102C20000BB60F922F938F939F93EF93FF93E091A7
:102C30008D07F0918E078081E0919307F0919407C2
:102C400082FD1DC09081809196078F5F8F732091C8
:102C50009707821741F0E0919607F0E0E358F84FAC
:102C6000958F80939607FF91EF919F918F912F9170
:102C70000F900BBE0F900FBE0F901F901895808184
:102C8000F2CF1F920F920FB60F9211240BB60F9234
:102C90002F933F934F935F936F937F938F939F9364
:102CA000AF93BF93EF93FF93F0E0E0E01995FF91AE
:102CB000EF91BF91AF919F918F917F916F915F91B4
:102CC0004F913F912F910F900BBE0F900FBE0F9021
:102CD0001F9018951F920F920FB60F9211240BB6EA
:102CE0000F922F933F934F935F936F937F938F93A5
:102CF0009F93AF93BF93EF93FF938091B900887F29
:102D0000803609F44DC008F040C0883209F4A9C0EB
:102D100028F5803109F49DC0C8F4882309F4FBC06C
:102D2000883009F496C0FF91EF91BF91AF919F91C8
:102D30008F917F916F915F914F913F912F910F9064
:102D40000BBE0F900FBE0F901F901895883109F49D
:102D500088C0803241F78093510714C0803409F451
:102D60009DC040F48033B9F38833E9F6809351076E
:102D700085ECB0C0803509F485C0883509F496C06B
:102D8000883489F60E940714CECF883909F48CC0A4
:102D900038F5883729F050F4883611F0803719F665
:102DA00083E0809353071092170757C0883809F4BF
:102DB0007BC0803919F0803809F0B5CF80911707B2
:102DC000803208F071C0E091170781E08E0F809388
:102DD00017078091BB00F0E0E950F94F80833DC0B8
:102DE000803B39F0E0F4803A09F479C0883A09F080
:102DF0009ACF84E0809353071092F6061092F5065E
:102E0000E0911A07F0911B0719958091F506811141
:102E10000FC081E08093F5061092D50609C0803C72
:102E200009F4A6CF883C09F4A3CF883B09F07BCFF7
:102E3000E091F60681E08E0F8093F606F0E0EB520B
:102E4000F94F80818093BB009091F6068091F50642
:102E500029C080912E078093BB0085EC8093BC0035
:102E600062CF9091500780914F07981758F5E091E5
:102E7000500781E08E0F80935007F0E0E15DF84F3E
:102E80008081E9CFE091500781E08E0F8093500759
:102E90008091BB00F0E0E15DF84F80839091500796
:102EA00080914F079817C8F285E8D8CFE091500776
:102EB00081E08E0F809350078091BB00F0E0E15DD0
:102EC000F84F80838091520781115CCF81E080931D
:102ED0002D0784EA8093BC001092530724CF85EC21
:102EE0008093BC001092530780911707803230F412
:102EF000E0911707F0E0E950F94F10826091170751
:102F000070E0E0911807F091190787EF96E01995A6
:102F10001092170708CF1092510734CFCF92DF924B
:102F2000EF92FF920F931F93E82FF92F05C00150E6
:102F300011092109310961F1908196239417B9F3A0
:102F400005C0015011092109310911F19081962321
:102F50009413F7CFC12CD12CE12CF12C0AC08FEFA8
:102F6000C81AD80AE80AF80A0C151D052E053F05EF
:102F700079F080818623841791F36C2D7D2D8E2D21
:102F80009F2D1F910F91FF90EF90DF90CF900895AC
:102F900060E070E080E090E01F910F91FF90EF9073
:102FA000DF90CF900895BF92CF92DF92EF92FF9281
:102FB0000F931F93CF93DF93EDE7F7E01382128215
:102FC00088EE93E0A0E0B0E084839583A683B78386
:102FD00028E232E03183208325EC30E035872487F6
:102FE00024EC30E03787268720EC30E0318B208BD3
:102FF00021EC30E0338B228B22EC30E0358B248BBC
:1030000026EC30E0378B268B118E128E138E148EA9
:10301000EAE1F8E01382128284839583A683B78362
:103020008AE392E0918380838DE3C82E89E0D82ED5
:1030300080E2E6018883198282E190E09B838A83A3
:1030400047E150E05D834C831E821F8218861986FB
:103050002FEF3FEF3B872A871C868FEE97EAA6EC7F
:10306000BDE38D879E87AF87B88B6BE2E62E69E064
:10307000F62E61E2F7016083BB24B394B18263E171
:1030800070E07383628368E170E075836483168205
:1030900017821086118633872287B48685879687A4
:1030A000A787B08B09E119E062E2E8016883198221
:1030B00062E070E07B836A836AE170E07D836C8309
:1030C0001E821F82188619863B872A871C868D8759
:1030D0009E87AF87B88BC7E0D9E064E26883B98286
:1030E00063E070E07B836A836CE170E07D836C83D6
:1030F0001E821F82188619863B872A87BC868D8789
:103100009E87AF87B88B8FE190E0909306098093FC
:1031100005098DE190E0909304098093030981E211
:1031200090E090930209809301098BE190E09093E5
:1031300000098093FF085093FE084093FD0889E141
:1031400090E09093FC088093FB0844E263E288EEF1
:1031500098E00E943B021092E4081092E508109259
:10316000E6081092E708EBE4F8E0168A178A108E5A
:10317000118E128E138E148E158E168E178E10A22F
:1031800011A280E090E0A0ECBFE786A397A3A0A7E0
:10319000B1A780E090E0A0E8BFE382A393A3A4A33B
:1031A000B5A3D182C082F382E28215830483D783E0
:1031B000C683A2E1B2E08D919C911197918780879F
:1031C00012968D919C9113979387828714968D9177
:1031D0009C9115979587848716968D919C9117974A
:1031E0009787868718968D919C911997918B808BE4
:1031F0001A968D919C91938B828B8DE798E0958B9D
:10320000848BAFE3B8E08FE290E013969C938E93AB
:10321000129721E030E015963C932E93149728E204
:1032200030E017963C932E93169729E230E01996DA
:103230003C932E93189721E330E01B963C932E93FA
:103240001A972AE338E043E350E0E90159834883C1
:103250009B838A83BC8280E398E043E250E0EC01E8
:103260005983488344E250E05B834A8340E050E066
:1032700060EA72E44E835F8368877987C8E2D8E0AA
:10328000F983E883BB83AA833D832C839F838E834A
:103290008AE290E09093270880932608DF91CF91EF
:1032A0001F910F91FF90EF90DF90CF90BF90089506
:1032B000CF93DF93CDB7DEB76C970FB6F894DEBF30
:1032C0000FBECDBF789484B5826084BD84B5816023
:1032D00084BD85B5826085BD85B5816085BD8091E1
:1032E0006E00816080936E00109281008091810059
:1032F0008260809381008091810081608093810051
:10330000809180008160809380008091B100846012
:103310008093B1008091B00081608093B000809173
:1033200091008260809391008091910081608093F0
:103330009100809190008160809390008091A10025
:1033400082608093A1008091A10081608093A100A0
:103350008091A00081608093A00080912101826013
:1033600080932101809121018160809321018091CE
:10337000200181608093200180917A008460809395
:103380007A0080917A00826080937A0080917A003E
:10339000816080937A0080917A00806880937A00BF
:1033A0001092C10010921D0710921C0710925A072C
:1033B00010927C070E94AF0583E394E090931B0773
:1033C00080931A0784E394E0909319078093180779
:1033D00060E082E10E94930380E593E00E9462092D
:1033E00087E693E00E946209E0918D07F0918E07D5
:1033F00082E08083E0918907F0918A071082E09152
:103400008B07F0918C078FEC808310929507E091E9
:103410009107F091920786E08083E0918F07F09109
:103420009007808180618083E0918F07F091900701
:10343000808188608083E0918F07F0919007808180
:1034400080688083E0918F07F091900780818F7D65
:10345000808384E793E00E94620986E893E00E94FB
:103460006209009128081091290801151105F9F049
:1034700068EE73E080E090E00E94F40380EA93E05D
:103480000E946209780128E0E20EF11C0E5E1F4FD7
:10349000D701ED91FD917D0160E080810E94930351
:1034A0000E151F05A9F78EEB93E00E94620968EEE6
:1034B00073E080E090E00E94F40380912A089091EC
:1034C0002B08009711F00E94730568EE73E080E00E
:1034D00090E00E94F40300912C0810912D08011532
:1034E000110559F061E0F80180810E94930361E0C9
:1034F000D80112968C910E94930368EE73E080E0ED
:1035000090E00E94F40300912E0810912F080115FD
:10351000110579F083E190E00E94B9287C01F8015F
:10352000428160810E943B02D8011596FC92EE9286
:10353000149768EE73E080E090E00E94F40382ED5F
:1035400093E00E94620968EE73E080E090E00E94E0
:10355000F40362E0809126080E94930361E0809169
:103560003A080E94930361E080913C080E94930313
:103570006DEC7CEC8CEC9EE30E94990260ED77E0B0
:1035800080E090E00E94F4036AEC72E0CE010196C4
:103590000E949E0DCE0101960E94340FCE0101962D
:1035A0000E94AF0D8FE398E00E94730568EE73E010
:1035B00080E090E00E94F40360E086E10E949303C3
:1035C0000E94B9098FE398E00E94A2098FE398E076
:1035D0000E94790980912C0890912D08009721F084
:1035E00060EA7FE00E94230A82EE93E00E94620973
:1035F00023EC422E25EF522E28EA622E2EE3722E65
:1036000080910002909101021C8A1B8A1E8A1D8AE9
:10361000188E1F8A4AE0BE016F5F7F4F0E943823D9
:10362000BE016F5F7F4FCE0143960E941A0D62E08C
:1036300074E0CE0101960E949E0DBE016D5E7F4F2B
:10364000CE0101960E94C60C0E94450ACE01019649
:103650000E94AF0DCE0143960E94AF0D0E947D0ADD
:10366000AB01BC01CE0101960E94240D66E174E01D
:10367000CE0143960E949E0DBE016F5F7F4FCE012B
:1036800043960E94C60C0E94450ACE0143960E94B2
:10369000AF0DCE0101960E94AF0D8EE294E00E9424
:1036A000620964E670E080E090E00E94F40386E244
:1036B00098E00E946905882379F185E494E00E94EE
:1036C000620910920102109200020E947D0AAB0171
:1036D000BC01409320075093210760932207709309
:1036E0002307CE0101960E94240D65E574E0CE010A
:1036F00043960E949E0DBE016F5F7F4FCE014396A1
:103700000E94C60C0E94450ACE0143960E94AF0D4E
:10371000CE0101960E94AF0DE0910002F0910102EE
:10372000E536F10508F06BC18827E656F44E8F4F59
:103730000C943527FF1B041C301C021D1D1D241D6D
:10374000351D481D611F5E1D8F1DA01DE21D921EAF
:1037500002214821B11EE21EB121031F521F611F29
:103760009E1F8F1DCF1F1320921E022148218B21E7
:10377000AC21B121CC21211D0F22DC22EF22FF1C24
:10378000FF1CFF1CFF1CFF1CFF1CFF1CFF1CFF1C61
:10379000FF1CFF1CFF1CFF1CFF1CFF1CFF1CFF1C51
:1037A000FF1CFF1CFF1CFF1CFF1CFF1CFF1CFF1C41
:1037B000FF1CFF1CFF1CFF1CFF1CFF1CFF1CFF1C31
:1037C000FF1CFF1CFF1CFF1CFF1CFF1CFF1CFF1C21
:1037D000FF1CFF1CFF1CFF1CFF1CFF1CFF1CFF1C11
:1037E000FF1CFF1CFF1CFF1CFF1CFF1CFF1CFF1C01
:1037F000FF1CFF1CFF1CFF1CFF1CFF1C0E2389E687
:1038000094E00E9462093FC1E0912808F0912908E4
:10381000309721F042A253A264A275A260912007C2
:103820007091210780912207909123070E94BA0A84
:10383000882309F4E4C0E0912808F0912908309722
:1038400041F08DEC9CECACECBEE382A393A3A4A36B
:10385000B5A368EC70E080E090E00E94F40368C3D8
:10386000A0902808B0902908A114B10409F4C7C099
:10387000F50142A253A264A275A20E942704698F97
:103880007A8F8B8F9C8F0E942704298D3A8D4B8DC8
:103890005C8D621B730B840B950B60337547810540
:1038A000910508F09CC0D5011A968D919C910E94BB
:1038B0006905F82EF501868597850E946905082F10
:1038C000D50152968D919C910E946905182FF501A2
:1038D000808991890E9469058823E9F06DEC72E086
:1038E000CE0101960E949E0DBE016F5F7F4FC50104
:1038F0000E94F30ECE0101960E94AF0D68EC70E0BD
:1039000080E090E00E94F40383E090E09093010255
:103910008093000274C0FF2051F1002371F06AE926
:1039200079E989E19EE320E030E0A9011123F1F17A
:103930000AE919E929E93EE322C011112FC000E08C
:1039400010E098019DECC92E9CECD92EED2C9DE346
:10395000F92E40E050E060E87FEBC5010E94BB0714
:1039600064E170E080E090E00E94F4038CCF0111EC
:103970000AC0111125C00DEC1CEC2CE43DE3C12C58
:10398000D12C7601E6CF60E070E0CB0111110AC0C6
:1039900000E010E0980168017901DBCF6AE979E97C
:1039A00089E19EE32DEC3CEC4CE45DE30E943D2775
:1039B0006B017C0101110EC000E010E09801C9CF3D
:1039C00000E010E09801C12CD12C80E8E82E8EEBAD
:1039D000F82EBFCF0DEC1CEC2CE43DE3BACF6DEC20
:1039E00072E0CE0101960E949E0DBE016F5F7F4F77
:1039F000C5010E94F30ECE0101960E94AF0D0E94F8
:103A00003805FECDE0912808F0912908309741F063
:103A10008DEC9CECACECBEE382A393A3A4A3B5A372
:103A200060E070E08AEF93E40E946C0F882339F322
:103A300080E794E00E9462090CCF80E894E00E9445
:103A400062090E94D8091FC082E994E00E946209BD
:103A500060E070E889E094E40E946C0F882379F2BA
:103A600080E794E00E94620959C384EA94E00E94CE
:103A7000620980912C0890912D08009721F060EA4E
:103A80007FE00E94230A60ED77E080E090E0E5CEE1
:103A90008FEA94E00E94620940912007509121072B
:103AA00060912207709123078CEF98E00E940A131F
:103AB000882309F4A4CF84EC94E0D4CFE0912808C3
:103AC000F0912908309741F087E696E6A6EEBEE32E
:103AD00082A393A3A4A3B5A3E12CF12C00E81FE3D8
:103AE00020E030E0A901CA01B9010E943B0960EB66
:103AF00074E080E090E00E94F403E12CF12C870157
:103B0000A8019701C801B7010E943B0968EE73E064
:103B100080E090E00E94F4038AE090E0F7CE8BEF23
:103B200094E00E9462090E94FB0960ED77E080E06A
:103B300090E00E94F40388E095E00E946209F8C1D9
:103B4000E0912808F0912908309741F086EF98E23B
:103B5000ACEDBEE382A393A3A4A3B5A38CE195E04F
:103B60000E94620913E3E12EFE2C03E31FEB20E029
:103B700030E0A901CA01B9010E943B0988EE98E032
:103B80000E94AC0BC99708F43ACFE12CF12C00E865
:103B90001FE320E030E0A901CA01B9010E943B09FE
:103BA00066E970E080E090E00E94F403E12CF12CE3
:103BB0008701A8019701C801B7010E943B0983E46E
:103BC00095E050CFE0912808F0912908309741F016
:103BD00084E393E3A3EBBEE382A393A3A4A3B5A3DF
:103BE00080911F07811107C08DE195E00E94620955
:103BF00081E080931F0788EE98E00E94AC0BBC0127
:103C000090E080E029E330E040E050E00E9413279C
:103C100069017A01BA01A901CE0101960E945A0DEB
:103C200062E575E0CE0143960E949E0DBE016F5F76
:103C30007F4FCE0143960E94C60C0E94A20C0E94A8
:103C4000450ACE0143960E94AF0DCE0101960E9417
:103C5000AF0DCD28CE28CF2809F442C01AE0E12EBE
:103C600017EDF12E03EA1BE320E030E0A90163E346
:103C700073E383E39FE30E943B098CE595E00E9498
:103C800062096AE070E080E090E00E94F40386E15F
:103C90000E943C03892BB1F56AEC72E0CE010196DB
:103CA0000E949E0DCE0101960E94340FCE01019616
:103CB0000E94AF0D89E895E00E94620968EE73E00A
:103CC00080E090E00E94F403809100029091010254
:103CD0000196909301028093000210921F078FCEED
:103CE0001AE0E12E17EDF12E03EA1DEB20E030E0A3
:103CF000A90163E373E383E39FE30E943B0982E747
:103D000095E0BDCF88EE98E00E94AC0B86359140DF
:103D100008F075CE88EE98E00E94AC0BC99708F0C9
:103D2000BBCF6DCE8AE995E00E94620988EA95E0F2
:103D30000E94620968EE73E080E090E00E94F40364
:103D40000E94B9098FE692E00E94620968EE73E072
:103D500080E090E00E94F4030E9499098AEB95E0CC
:103D600081CEE0912808F0912908309741F084E352
:103D700093E3A3EBBEE382A393A3A4A3B5A385E13E
:103D800096E00E9462090E943A120E94481188231C
:103D900009F435CEE12CF12C8701A801970160E0F0
:103DA00070E080E89FEB0E943B0964E670E080E0F1
:103DB00090E00E94F403A8019701C801B7010E9496
:103DC0003B09B6C082E994E00E946209E0912808AC
:103DD000F0912908309741F084E393E3A3EBBEE32D
:103DE00082A393A3A4A3B5A30E945E10882309F421
:103DF00006CEE12CF12C8701A8019701C801B7017B
:103E00000E943B098BC1E0912808F0912908309766
:103E100021F042A253A264A275A284EE95E00E9412
:103E2000620940912007509121076091220770910B
:103E30002307CE0101960E94240D6AEF75E0CE01A2
:103E400043960E949E0DBE016F5F7F4FCE01439649
:103E50000E94C60C0E94450ACE0143960E94AF0DF7
:103E6000CE0101960E94AF0D60912007709121074D
:103E700080912207909123070E94BA0A882309F4AF
:103E8000BECDE0912808F0912908309741F087E6EF
:103E900096E6A6EEBEE382A393A3A4A3B5A386E011
:103EA00096E0E0CD8FEA94E00E94620940912007FD
:103EB00050912107609122077091230780EF9AE0CB
:103EC000F5CD81EE94E00E946209E0912808F0911E
:103ED0002908309741F087E696E6A6EEBEE382A376
:103EE00093A3A4A3B5A3E12CF12C870120E030E03B
:103EF00040E85FE3C801B7010E943B0964EF71E04D
:103F000080E090E00E94F403A8019701C801B70186
:103F10000E943B09E0912808F0912908309741F070
:103F200087E696E6A6EEBEE382A393A3A4A3B5A379
:103F300080910002909101020196E8CCE09128085E
:103F4000F0912908309741F087E696E6A6EEBEE3A9
:103F500082A393A3A4A3B5A3E12CF12C00E81FE353
:103F600020E030E0A901CA01B9010E943B0960EBE1
:103F700074E080E090E00E94F403E12CF12C8701D2
:103F8000A8019701C801B7010E943B0968EE73E0E0
:103F900080E090E00E94F40387E190E0B7CCE091EC
:103FA0002808F0912908309741F087E696E6A6EEBA
:103FB000BEE382A393A3A4A3B5A38CE195E00E94E2
:103FC00062091DECE12E1CECF12E0CE01FEB20E051
:103FD00030E0A901CA01B9010E943B0988EE98E0CE
:103FE0000E94AC0BC99768F31DECE12E1CECF12E7E
:103FF0000CE01FE320E030E0A901CA01B9010E94F2
:104000003B0964E670E080E090E00E94F403E12C5C
:10401000F12C8701A8019701C801B7010E943B0953
:1040200084E496E0EECBE0912808F09129083097DF
:1040300041F08DEC9CECACECBEE382A393A3A4A373
:10404000B5A380911E07811107C08DE195E00E9404
:10405000620981E080931E0788EE98E00E94AC0B15
:10406000BC0190E080E029E330E040E050E00E94B5
:10407000132769017A01BA01A901CE0101960E94B4
:104080005A0D62E575E0CE0143960E949E0DBE0179
:104090006F5F7F4FCE0143960E94C60C0E94A20C18
:1040A0000E94450ACE0143960E94AF0DCE010196B3
:1040B0000E94AF0DCD28CE28CF28A9F11AE0E12E1D
:1040C00017EDF12E03EA1BE320E030E0A90163E3E2
:1040D00073E383E39FE30E943B098CE595E00E9434
:1040E000620962E370E080E090E00E94F40386E100
:1040F0000E943C03892B49F584E496E00E94620902
:104100006AEC72E0CE0101960E949E0DCE010196EE
:104110000E94340FCE0101960E94AF0D68EE73E04D
:1041200080E090E09ACB19E2E12E1CE5F12E0FE839
:104130001DEB20E030E0A90163E373E383E39FE339
:104140000E943B0982E795E0CACF00912E081091AA
:104150002F080115110509F452CCD80114968D9140
:104160009C91892B61F500912E0810912F08F80180
:1041700084819581892B09F442CC62E370E080E070
:1041800090E00E94F403F801848195810E94AC0BB9
:10419000BC0190E080E029E330E040E050E00E9484
:1041A0001327B90190E080E00E94F42520E030E080
:1041B000A9010E94B42818160CF49ECF20CC62E30B
:1041C00070E080E090E00E94F403D80114968D9195
:1041D0009C910E94AC0BBC0190E080E029E330E0B0
:1041E00040E050E00E941327B90190E080E00E9477
:1041F000F42520E030E040E251E40E94EF2587FF03
:10420000FECBB1CF85EC95E00E946209E0912808D1
:10421000F0912908309741F086EF98E2ACEDBEE3CB
:1042200082A393A3A4A3B5A3C0902007D090210795
:10423000E0902207F09023070E947D0A9B01AC01C9
:10424000C701B6010E943D270E94EE0D882309F4A4
:10425000D6CBE0912808F0912908309741F087E605
:1042600096E6A6EEBEE382A393A3A4A3B5A381ED35
:1042700095E00E94620968EE73E080E090E00E94A1
:10428000F4036DEC7CEC8CEC9EE30E94990250CE22
:10429000E0912808F0912908309741F084E393E3F6
:1042A000A3EBBEE382A393A3A4A3B5A384EE95E0FE
:1042B0000E946209409120075091210760912207D6
:1042C00070912307CE0101960E94240D6AEF75E0DC
:1042D000CE0143960E949E0DBE016F5F7F4FCE01BF
:1042E00043960E94C60C0E94450ACE0143960E9446
:1042F000AF0DCE0101960E94AF0D60912007709125
:10430000210780912207909123070E94BA0A8823EF
:1043100009F475CBC4CDE0912808F09129083097B5
:1043200041F084E393E3A3EBBEE382A393A3A4A3AE
:10433000B5A385E196E00E9462090E943A1284E5E5
:1043400096E00E9462090E944811882309F457CB25
:10435000E12CF12C87012FCD82E994E00E946209C3
:1043600043CD0E94FB0980912A0890912B08009769
:1043700011F00E94A20968EE73E080E090E00E94D4
:10438000F4030E94990964E670E080E090E00E94E6
:10439000F40384E396E0D1CBE0912808F09129085A
:1043A000309721F042A253A264A275A284EE95E058
:1043B0000E946209409120075091210760912207D5
:1043C00070912307CE0101960E94240D6AEF75E0DB
:1043D000CE0143960E949E0DBE016F5F7F4FCE01BE
:1043E00043960E94C60C0E94450ACE0143960E9445
:1043F000AF0DCE0101960E94AF0D60912007709124
:10440000210780912207909123070E94BA0A8823EE
:1044100009F417CB64EF71E080E090E01ECAA09031
:104420002808B0902908A114B10409F4E8CAD501FC
:1044300092964D925D926D927C9295970E94270480
:10444000698F7A8F8B8F9C8F0E942704298D3A8DDC
:104450004B8D5C8D621B730B840B950B643A76401D
:1044600081059105D8F4D5011A968D919C910E94F1
:104470006905F82EF501868597850E946905082F44
:10448000D50152968D919C910E946905182FF501D6
:10449000808991890E946905882351F16DEC72E051
:1044A000CE0101960E949E0DBE016F5F7F4FC50138
:1044B0000E94F30ECE0101960E94AF0DE12CF12C6B
:1044C0008701A801970160E070E080E89FEB0E94FF
:1044D0003B0964E670E080E090E00E94F403A801EC
:1044E0009701C801B7010E943B0983E796E0BACA69
:1044F000FF2051F1002371F06AE979E989E19EE337
:1045000020E030E0A9011123F1F10AE919E929E9D4
:104510003EE322C011112FC000E010E098019DEC95
:10452000C92E9CECD92EED2C9DE3F92E40E050E0F5
:1045300060E87FEBC5010E94BB0764E170E080E0AA
:1045400090E00E94F40380CF01110AC0111125C030
:104550000DEC1CEC2CE43DE3C12CD12C7601E6CF14
:1045600060E070E0CB0111110AC000E010E098019A
:1045700068017901DBCF6AE979E989E19EE32DECF5
:104580003CEC4CE45DE30E943D276B017C01011192
:104590000EC000E010E09801C9CF00E010E09801E3
:1045A000C12CD12C80E8E82E8EEBF82EBFCF0DEC7D
:1045B0001CEC2CE43DE3BACF81E996E00E9462094D
:1045C00080912C0890912D08009721F064E971E109
:1045D0000E94230A60EA7FE080E090E03EC98EE915
:1045E00096E00E94620960E070E086E994E40E942F
:1045F0006C0F882309F403CAE12CF12C8701A80170
:104600009701C801B7010E943B0968EE73E080E0A2
:1046100090E00E94F40384E690E078C986E298E096
:104620000E946905882309F4EAC9109201021092D8
:104630000002E5C9EF920F931F93CF93DF93E80138
:1046400034E047FD34E1042E000C550B57FF03C046
:10465000519541955109E32E022F242FAE010E945E
:104660008E23CE01DF91CF911F910F91EF9008958E
:10467000BB274A3031F4992322F4BDE2909581950D
:104680009F4F0C947523BB272A3051F4992342F491
:10469000BDE290958095709561957F4F8F4F9F4FAC
:1046A0000C945323BB27FA01A62F621771058105CD
:1046B0009105330B30FB66F0AA27660F771F881F22
:1046C000991FAA1FA21710F0A21B63953850A9F7D3
:1046D000A05DAA3308F0A95DA19336F7B111B1939B
:1046E0001082CA010C94DF25BB27FB015527AA279E
:1046F000880F991FAA1FA41710F0A41B839550516F
:10470000B9F7A05DAA3308F0A95DA193009779F7E6
:10471000B111B1931192CB010C94DF258F929F922E
:10472000AF92BF92CF92DF92EF92FF920F931F93BF
:10473000CF93DF9300D000D000D0CDB7DEB76A01B1
:10474000F22EB02E102FFBE3AF2EA01608F41BE3C1
:104750001F5F012F27E0AE014F5F5F4F0E940725CB
:10476000BC018981982F9970913009F44EC09BE269
:10477000E1FC04C09E2D9170E0FC49C05E2D50719B
:10478000E82FE87083FF55C084E0911101C083E0F9
:10479000EF2DE81B8F1508F0E0E0D6018E2F20E208
:1047A0005523C9F1992329F0D6019C93C60101969E
:1047B0006C0196012D5F3F4FE2FE33C08EE4D601BF
:1047C0008C9391E411969C93119712968C93D90136
:1047D0008E2F90E281112AC0E20FF32FF11D10827B
:1047E0008EEF9FEF29960FB6F894DEBF0FBECDBFB8
:1047F000DF91CF911F910F91FF90EF90DF90CF90BD
:10480000BF90AF909F908F9008959DE2B7CF90E2B8
:10481000B5CF2D9381508111FCCFCE0ED11CE0E09D
:10482000C1CF8EE6D6018C9391E6CCCF9D9381507B
:10483000D1CF482F447082FF3DC084E0911101C068
:1048400083E08F1510F4EF2DE81BD6018E2F20E2A8
:10485000552309F1992329F0D6019C93C6010196AD
:104860006C0196012D5F3F4FE2FE1BC089E4D6012B
:104870008C938EE411968C93119786E412968C9308
:10488000D9018E2F90E2882309F4A6CF9D93815001
:10489000FACF2D9381508111FCCFCE0ED11CE0E0D8
:1048A000D9CF89E6D6018C938EE611968C93119719
:1048B00086E6E4CF9B0177FF02C030E020E0A1E074
:1048C000B0E0911102C0B0E0A0E0F9013196AE0F66
:1048D000BF1F8B2C912CBB2009F461C05401EFEF5A
:1048E000AE1ABE0AAA0DBB1DFA161B0619F014F06B
:1048F0004F2D4A1B511188C0E3FC59C07601A42FEB
:10490000B0E2A1114FC0C40ED11C992309F45BC0C1
:1049100040E0D6011196F60190836D01552309F40C
:1049200048C0012F060F9A81582F507184FF03C091
:10493000913309F4015010160CF047C0093008F00B
:1049400008E0EEE2FE2E5B01A01AB1088501919409
:10495000819491082F3F320729F4D601FC92F60189
:1049600031966F016217730794F1021713077CF5F4
:10497000DB01A21BB30BAA24A394B12CAC0EBD1E69
:10498000AA0DBB1D11968C9121503109D6011196AB
:1049900028153905F4F0F60180836D01DBCFB12CC9
:1049A000A12CA0CFF701B1937F01A150AACF911103
:1049B000B0CFD601942F50E302C05D939150911176
:1049C000FCCFC40ED11C40E0ACCF01E0BACF80E3F5
:1049D000DBCF6217730731F4963388F4953311F403
:1049E000552369F0F6018083FD01842F90E2811147
:1049F00008C0A40FB11D1C9290E080E0F3CE81E3CB
:104A0000F1CF91938150F3CF911183CF8ACF28308A
:104A100008F027E03327DA01990F311D87FD9160F7
:104A200000966105710539F432602E5F3D9330E3E5
:104A30002A95E1F708959F3F30F0803871056105B0
:104A400009F03C5F3C5F3D93913008F08068911D18
:104A5000DF93CF931F930F93FF92EF92192F987FBD
:104A60009695E92F96959695E90FFF27E25BFD4F06
:104A700099273327EE24FF24A701E7010590089426
:104A8000079428F4360FE71EF81E491F511D660FC4
:104A9000771F881F991F0694A1F70590079428F4A3
:104AA000E70EF81E491F561FC11D770F881F991F5B
:104AB000661F0694A1F70590079428F4F80E491F85
:104AC000561FC71FD11D880F991F661F771F069499
:104AD000A1F70590079420F4490F561FC71FD81F50
:104AE000990F661F771F881F0694A9F78491109568
:104AF000177041F0D695C79557954795F794E79469
:104B00001A95C1F7E4EFF1E068941590159135918D
:104B10006591959105907FE27395E118F10A430B39
:104B2000560BC90BD009C0F7E10CF11E431F561FED
:104B3000C91FD01D7EF4703311F48A95E6CFE89436
:104B4000015030F0080F0AF40027021708F4202F54
:104B50002395022F7A3328F079E37D932A95E9F79C
:104B600010C07D932A9589F6069497956795379599
:104B700017951794E118F10A430B560BC90BD0098E
:104B800098F023957E9173957A3308F070E37C93C7
:104B90002013B8F77E9170617D9330F0839571E3B7
:104BA0007D9370E32A95E1F71124EF90FF900F9128
:104BB0001F91CF91DF91992787FD90950895DC0192
:104BC000FC01672F71917723E1F7329704C07C9144
:104BD0006D9370836291AE17BF07C8F308950E946A
:104BE000312608F481E00895E89409C097FB3EF46B
:104BF00090958095709561957F4F8F4F9F4F99232A
:104C0000A9F0F92F96E9BB279395F69587957795A7
:104C10006795B795F111F8CFFAF4BB0F11F460FF67
:104C20001BC06F5F7F4F8F4F9F4F16C0882311F0BF
:104C300096E911C0772321F09EE8872F762F05C0D3
:104C4000662371F096E8862F70E060E02AF09A956E
:104C5000660F771F881FDAF7880F9695879597F963
:104C60000895990F0008550FAA0BE0E8FEEF1616FD
:104C70001706E807F907C0F012161306E407F50750
:104C800098F0621B730B840B950B39F40A2661F0C4
:104C9000232B242B252B21F408950A2609F4A14067
:104CA000A6958FEF811D811D08950E9468260C94A2
:104CB000D9260E94CB2638F00E94D22620F09523D8
:104CC00011F00C94C2260C94C82611240C940D27C4
:104CD0000E94EA2670F3959FC1F3950F50E0551F8F
:104CE000629FF001729FBB27F00DB11D639FAA2741
:104CF000F00DB11DAA1F649F6627B00DA11D661F90
:104D0000829F2227B00DA11D621F739FB00DA11DB0
:104D1000621F839FA00D611D221F749F3327A00D6A
:104D2000611D231F849F600D211D822F762F6A2F06
:104D300011249F5750409AF0F1F088234AF0EE0F6B
:104D4000FF1FBB1F661F771F881F91505040A9F798
:104D50009E3F510580F00C94C2260C940D275F3FB6
:104D6000E4F3983ED4F3869577956795B795F795D4
:104D7000E7959F5FC1F7FE2B880F911D969587954C
:104D800097F9089597F99F6780E870E060E00895CB
:104D90009FEF80EC089500240A9416161706180653
:104DA0000906089500240A9412161306140605062F
:104DB0000895092E0394000C11F4882352F0BB0FC0
:104DC00040F4BF2B11F460FF04C06F5F7F4F8F4F23
:104DD0009F4F089557FD9058440F551F59F05F3F5E
:104DE00071F04795880F97FB991F61F09F3F79F00D
:104DF00087950895121613061406551FF2CF46958F
:104E0000F1DF08C0161617061806991FF1CF869510
:104E10007105610508940895E894BB2766277727F4
:104E2000CB0197F90895A1E21A2EAA1BBB1BFD0125
:104E30000DC0AA1FBB1FEE1FFF1FA217B307E40779
:104E4000F50720F0A21BB30BE40BF50B661F771FD1
:104E5000881F991F1A9469F76095709580959095B1
:104E60009B01AC01BD01CF010895EE0FFF1F881F0C
:104E70008BBF0790F691E02D19945058BB27AA27B5
:104E80000E9455270C94D9260E94CB2638F00E9408
:104E9000D22620F039F49F3F19F426F40C94C8264A
:104EA0000EF4E095E7FB0C94C226E92F0E94EA2657
:104EB00058F3BA17620773078407950720F079F44F
:104EC000A6F50C940C270EF4E0950B2EBA2FA02D0E
:104ED0000B01B90190010C01CA01A0011124FF27A7
:104EE000591B99F0593F50F4503E68F11A16F040A2
:104EF000A22F232F342F4427585FF3CF46953795A1
:104F00002795A795F0405395C9F77EF41F16BA0B65
:104F1000620B730B840BBAF09150A1F0FF0FBB1F13
:104F2000661F771F881FC2F70EC0BA0F621F731F5C
:104F3000841F48F4879577956795B795F7959E3FB9
:104F400008F0B0CF9395880F08F09927EE0F97954A
:104F5000879508950E94BE270C94D9260E94D226D8
:104F600058F00E94CB2640F029F45F3F29F00C94C2
:104F7000C22651110C940D270C94C8260E94EA26D3
:104F800068F39923B1F3552391F3951B550BBB2778
:104F9000AA2762177307840738F09F5F5F4F220FBD
:104FA000331F441FAA1FA9F335D00E2E3AF0E0E8B4
:104FB00032D091505040E695001CCAF72BD0FE2FFE
:104FC00029D0660F771F881FBB1F26173707480792
:104FD000AB07B0E809F0BB0B802DBF01FF2793584A
:104FE0005F4F3AF09E3F510578F00C94C2260C9426
:104FF0000D275F3FE4F3983ED4F386957795679548
:10500000B795F7959F5FC9F7880F911D969587957E
:1050100097F90895E1E0660F771F881FBB1F62179D
:1050200073078407BA0720F0621B730B840BBA0B5B
:10503000EE1F88F7E09508950E9423286894B11127
:105040000C940D2708950E94F22688F09F5798F03F
:10505000B92F9927B751B0F0E1F0660F771F881F7D
:10506000991F1AF0BA95C9F714C0B13091F00E9497
:105070000C27B1E008950C940C27672F782F882710
:10508000B85F39F0B93FCCF3869577956795B395BE
:10509000D9F73EF490958095709561957F4F8F4F2D
:1050A0009F4F08950E94CB2620F019F00E94D2262F
:1050B00050F40C94C8260C940D27E92F0E94EA2680
:1050C00088F35523B1F3E7FB62177307840795074D
:1050D000A8F189F3E92FFF2788232AF03197660F7B
:1050E000771F881FDAF7952F5527442332F0915008
:1050F0005040220F331F441FD2F7BB27E91BF50B8B
:10510000621B730B840BB109B1F222F4620F731F9F
:10511000841FB11D31972AF0660F771F881FBB1FB0
:10512000EFCF9150504062F041F0882332F0660F8B
:10513000771F881F91505040C1F793950C94A62873
:105140008695779567959F5FD9F7F7CF9F3F31F0A9
:10515000915020F4879577956795B795880F911DA5
:105160009695879597F908950E94312608F48FEF58
:1051700008950F931F93CF93DF938230910510F41E
:1051800082E090E0E0915109F091520930E020E096
:10519000B0E0A0E0309799F42115310509F44AC038
:1051A000281B390B24303105D8F58A819B81611584
:1051B000710589F1FB0193838283FE0111C0408157
:1051C00051810281138148175907E0F048175907A8
:1051D00099F4109761F012960C93129713961C9302
:1051E0003296CF01DF91CF911F910F9108950093D7
:1051F000510910935209F4CF2115310551F042178E
:10520000530738F0A901DB019A01BD01DF01F80164
:10521000C1CFEF01F9CF9093520980935109CDCFBF
:10522000FE01E20FF31F81939193225031093983DC
:105230002883D7CF20914F0930915009232B41F477
:1052400020912002309121023093500920934F0980
:1052500020911E0230911F022115310541F42DB716
:105260003EB74091220250912302241B350BE0915E
:105270004F09F0915009E217F307A0F42E1B3F0BE2
:105280002817390778F0AC014E5F5F4F24173507B8
:1052900048F04E0F5F1F5093500940934F09819380
:1052A00091939FCFF0E0E0E09CCFCF93DF93009706
:1052B000E9F0FC01329713821282A0915109B0915A
:1052C0005209ED0130E020E01097A1F420813181F6
:1052D000820F931F20914F093091500928173907E9
:1052E00009F061C0F0935009E0934F09DF91CF912D
:1052F0000895EA01CE17DF07E8F54A815B819E0138
:1053000041155105B1F7E901FB83EA8349915991B0
:10531000C40FD51FEC17FD0761F4808191810296BF
:10532000840F951FE90199838883828193819B83F0
:105330008A83F0E0E0E012968D919C91139700979C
:10534000B9F52D913C911197CD010296820F931FD3
:1053500020914F09309150092817390739F63097B5
:1053600051F51092520910925109B0935009A0932F
:105370004F09BCCFD383C28340815181840F951FD5
:10538000C817D90761F44E5F5F4F88819981480F34
:10539000591F518340838A819B8193838283211586
:1053A000310509F0B0CFF0935209E09351099ECF37
:1053B000FD01DC01C0CF13821282D7CF4F925F92E2
:1053C0006F927F928F929F92AF92BF92CF92DF9215
:1053D000EF92FF920F931F93CF93DF938C0100976F
:1053E00099F4CB01DF91CF911F910F91FF90EF9036
:1053F000DF90CF90BF90AF909F908F907F906F90F5
:105400005F904F900C94B928FC01E60FF71F9C01A8
:1054100022503109E217F30708F4AEC0D901CD914B
:10542000DC911197C617D70720F1C530D10578F068
:10543000CE0104978617970750F0C61BD70B22970B
:10544000C193D1936D937C93CF010E945529C801DC
:10545000DF91CF911F910F91FF90EF90DF90CF9050
:10546000BF90AF909F908F907F906F905F904F9084
:1054700008955B01AC1ABD0A4C018C0E9D1EA091D3
:105480005109B0915209512C412CF12CE12C10976B
:1054900031F580914F09909150098815990509F0CF
:1054A0005CC04616570608F058C080911E029091C5
:1054B0001F02009741F48DB79EB740912202509190
:1054C0002302841B950BE817F90708F055C0F093E9
:1054D0005009E0934F09F90171836083B8CF8D9132
:1054E0009C91119712966C90129713967C9013973B
:1054F000A815B90559F56C0142E0C40ED11CCA14B7
:10550000DB0420F1AC014A195B09DA011296159708
:1055100080F06282738251834083D9016D937C93C2
:10552000E114F10471F0D7011396FC93EE931297F6
:105530008ECF22968C0F9D1FF90191838083F301FA
:10554000EFCFF0935209E093510981CF48165906E5
:1055500008F42C017D01D3019ACFCB010E94B92818
:105560007C01009749F0AE01B8010E94BF2AC80132
:105570000E94552987016BCF10E000E068CFFB0146
:10558000DC0102C001900D9241505040D8F70895BF
:10559000FB01DC018D91019080190110D9F3990B69
:1055A0000895FB01DC0101900D920020E1F70895C0
:0455B000F894FFCF9D
:1055B4006400D402D402D402D402D402D402D402A9
:1055C400D402050903090109FF08FD08FB080000CE
:1055D4005309800000000000CB0435046204180560
:1055E4009304710485040000000045061806570959
:1055F400EE051106FE05EF050D0A004272C3BC63F9
:105604006B6520616E6765686F62656E00477265E1
:1056140069666572206765C3B666666E6574004721
:105624007265696665722067657363686C6F73730E
:10563400656E004272C3BC636B6520616267656C12
:10564400656774004E696D6D204F7269656E74698B
:105654006572756E672061756620756E642073745B
:1056640061727465204661687274206E616368209B
:1056740068696E74656E2E2E2E0066770062770060
:1056840020636D002D2D2D20537461727465206587
:10569400696E66616368652072656C6174697665BC
:1056A4002044726568756E67202D2D2D005374613A
:1056B400727465206173796D6D6574726973636862
:1056C400652073616E667465204B616E74656E66E9
:1056D400616872742E2E2E005A69656C2065727290
:1056E40065696368743A20766F726E65206C696EC2
:1056F4006B73207369656874204B616E74652E004A
:105704004779726F20696E697469616C6973696540
:1057140072656E2E2E2E004779726F206265726557
:105724006974210053746172746520526F626F74DE
:1057340065722E2E2E00526F626F74657220696E30
:10574400697469616C6973696572656E2E2E2E00C9
:10575400447269766553797374656D20696E6974F2
:1057640069616C6973696572656E2E2E2E004472D0
:1057740069766553797374656D20626572656974C1
:105784002100526F626F746572206265726569747C
:105794002100526F626F746572206265726569746C
:1057A4002C207761727465206175662053544152D0
:1057B4005400416B7475656C6C6572205A75737412
:1057C400616E643A2000416B7475656C6C65204FA2
:1057D4007269656E74696572756E673A2000427508
:1057E40072696D2069736368206465722042657311
:1057F400636874210053746172742067656472C3B2
:10580400BC636B74005374617274204F64792067B5
:10581400657365747A743A20005374617274650018
:1058240068696E74656E2065727265696368740078
:10583400506C61747A69657265206272C3BC636B73
:1058440065004661687265206E6163682068696EF0
:1058540074656E004761626C6520686F636800C39D
:10586400BC626572206272C3BC636B65206661684A
:1058740072656E0061756620616E64657265722082
:10588400536569746520616E67656B6F6D6D656ED8
:105894000066616872652065696E77656E69672068
:1058A4006E616368206C696E6B7300536F6E617216
:1058B4002072756E74657200536F6E61722072751A
:1058C4006E74657220666572746967002053746132
:1058D400727465204F626A656B74737563686520C2
:1058E400756E6420416E6EC3A4686572756E672E12
:1058F4002E2E006D69747465206572726569636823
:10590400740044697374616E7A3A20004B6F72724A
:10591400696769657265206E616368206C696E6B86
:1059240073004B6F7272696769657265206E61639B
:105934006820726563687473004F626A656B7420D3
:10594400657272656963687421004772656966658A
:10595400204F626A656B74004772656966657220E0
:105964006162676573656E6B74004943682068659E
:10597400622061620044726568652061756620304A
:10598400004765647265687420617566203020473D
:1059940072616400466168726520616E207265639D
:1059A400687465204B616E74650053746172742071
:1059B4004F64793A20004B616E746520657272659C
:1059C4006963687400466168726520616E2072655F
:1059D4006368746572204B616E746520656E746CC7
:1059E400616E67004F626A656B7420616267656C03
:1059F400656774004F626A656B742065726B616ED3
:105A04006E742100466168726520626973207A753C
:105A14006D20656E646520646573207469736368C2
:105A2400657300566F726E65206C696E6B73204BE4
:105A3400616E74652065726B616E6E7453746F7001
:105A4400004272C3BC636B6520686F636800466183
:105A5400687265206E61636820766F726E650000FF
:00000001FF
